:020000040800F2
:10000000881200207D020008836300083D5B000821
:1000100000000000000000000000000000000000E0
:1000200000000000000000000000000091630008D4
:1000300000000000000000008F630008E563000876
:100040008F020008876300088F0200088F020008F3
:100050008F020008192500088F0200088F0200088F
:100060008F020008B52400088F0200088F020008E4
:100070008F0200088F0200088F0200088F0200081C
:100080008F0200089D6400088F0200080000000035
:100090008F0200088F0200088F0200088F020008FC
:1000A0008F0200088F0200088F0200088F020008EC
:1000B000697000088F0200088F0200088F02000894
:1000C00000F002F800F0CBF812A030C8083824186D
:1000D0002D18AC4201D100F0C2F80FCCA246AB46BD
:1000E0000CA730CF2D1B083F3F197C427F1E544484
:1000F0002D090426F441641EAC4201D300F0AFF890
:100100000126334200D0FB1A3343984754465D46DC
:10011000DFE700006C9500008C950000103A02D3D8
:1001200078C878C1FAD8520701D330C830C101D598
:1001300004680C6070470000704700000023002432
:1001400000250026103A01D378C1FBD8520700D30E
:1001500030C100D50B60704710B56E2902D100F098
:1001600089FD10BD702902D100F0CBFE10BD6629BB
:1001700002D108F0BFFA10BD652902D108F0BAFA21
:1001800010BD672902D108F0B5FA10BD612902D16E
:1001900008F0B8FA10BD03681B0A01D38023194385
:1001A000692902D100F030FD10BD642902D100F0B0
:1001B0002BFD10BD752902D100F026FD10BD6F2961
:1001C00002D100F049FE10BD782902D100F086FE70
:1001D00010BDE92902D100F0E5FD10BDE42902D1EE
:1001E00000F0E0FD10BDF52902D100F0DBFD10BDEF
:1001F000EF2902D100F03CFE10BDF82902D100F039
:100200007BFE10BD0368DB0901D3802319436329FA
:1002100002D101F084FB10BD732902D101F087FBEC
:1002200010BDE32902D101F091FB10BDF32902D1E9
:1002300001F094FB10BD002010BD1FB501F026FC9D
:1002400004000020002108F00FF9401C606000202D
:10025000002108F0F3F8E0601FBD10B510BD01F0FB
:10026000EDFB1146FFF7E9FF07F0B6F801F082FF5A
:1002700003B4FFF7F2FF03BC02F018F80748804709
:1002800007480047FEE7FEE7FEE7FEE7FEE7FEE77A
:1002900004480549054A064B704700009964000868
:1002A000C1000008880C002088120020880E002061
:1002B000880E00204343514330B55C18010C130CE9
:1002C0000D4692B25D4380B251432C190546554309
:1002D0000A0C09044D1962415843010C00044019ED
:1002E000514130BDFEB5044610460D46184373D04B
:1002F000A6468C460020A41A01469D4167D3664657
:10030000002701243D46B61A9D4102D313463A46C2
:100310002124654676462F04360C3E432D0CB61A32
:100320009D4104D3150C1B042B4312041034654665
:1003300076462F06360A3E432D0AB61A9D4104D34F
:10034000150E1B022B4312020834654676462F0712
:1003500036093E432D09B61A9D4104D3150F1B01E2
:100360002B431201241D65467646AF07B6083E436F
:10037000AD08B61A9D4104D3950F9B002B43920004
:10038000A41C65467646EF0776083E436D08B61A0C
:100390009D411AD392185B41641C16E00018764602
:1003A00065464941B71A9D410191009009D36046C5
:1003B000B11A98418E468446009801990025401C48
:1003C0006941DD0752082A435B08641EE6D5724680
:1003D000634603B0F0BDFFE72046284307D0002066
:1003E000C0430146C046C04622462B46F1E70020E6
:1003F0000146F7E70FB41CB5084B06AA7B446946D3
:100400000090059800F04FFC04460020694600F07B
:100410005DFC20461CBC08BC04B01847CD08000099
:100420000FB41CB50C0007AA009007D04142A142AE
:1004300002D30019401E01E00020C043074B7B445B
:1004400069460190069800F02EFC0021002C01D096
:10045000009A11701CBC08BC04B018479508000035
:1004600030B5441C03E00178401C00290DD0810701
:10047000F9D10B4BDD0104C8D11A91432940FAD0C0
:10048000001B0A0603D0C01E30BD001B30BD0A048D
:1004900001D0801E30BD0902FCD0401E30BD0000DE
:1004A0000101010101E004C0091F0429FBD28B07EF
:1004B00001D50280801CC90700D002707047002956
:1004C0000BD0C30702D00270401C491E022904D37E
:1004D000830702D50280801C891EE3E70022EEE735
:1004E0000022DFE7002203098B422CD3030A8B4250
:1004F00011D300239C464EE003460B433CD400221C
:1005000043088B4231D303098B421CD3030A8B422D
:1005100001D394463FE0C3098B4201D3CB01C01AFB
:10052000524183098B4201D38B01C01A52414309C6
:100530008B4201D34B01C01A524103098B4201D3B4
:100540000B01C01A5241C3088B4201D3CB00C01A21
:10055000524183088B4201D38B00C01A5241430899
:100560008B4201D34B00C01A5241411A00D20146BE
:100570005241104670475DE0CA0F00D04942031057
:1005800000D3404253409C46002203098B422DD3A6
:10059000030A8B4212D38901FC2212BA030A8B424E
:1005A0000CD3890192118B4208D3890192118B429D
:1005B00004D389013AD0921100E08909C3098B4222
:1005C00001D3CB01C01A524183098B4201D38B0165
:1005D000C01A524143098B4201D34B01C01A524108
:1005E00003098B4201D30B01C01A5241C3088B424D
:1005F00001D3CB00C01A524183088B4201D38B0038
:10060000C01A5241D9D243088B4201D34B00C01AC1
:100610005241411A00D201465241104663465B10D6
:1006200001D34042002B00D54942704763465B101E
:1006300000D3404201B50549002802DC491C0840AE
:1006400000E00846C046C04602BD00BFFFFFFF7F76
:1006500070477047704700000246C80FC0078143CB
:100660004B0030B54B405B009B0D20D01923DB06BF
:10067000C91801231B05994220DB0324A407042584
:100680001346AB400BD3002B04D1EB0613409B0069
:10069000E34204D401246407002312195941FF23C3
:1006A0001B0599420BD2C9000143500F09E0CB0250
:1006B00004D501430803024305D0054830BDFF219E
:1006C000C905084330BD084607210905884330BDE8
:1006D0000000C07FF0B58B4C0F09254689B0BD43A3
:1006E0007BD01D092646AE43FAD00E465E40274019
:1006F000F60F3E43254071D024012142FBD0FF2458
:10070000AD19A4042D1B039501252D05DB02DB0A81
:10071000C9022B43C90A29431E010901040F130F03
:10072000050121431701880B820391432D098C4653
:10073000A90B1E438A039543B30B9A0396433F09C3
:10074000BA0B9403A74302962E467E430497B646FF
:100750004E19D7190C460196544305977E43371B13
:100760007646BF1B3601B646BE0B36190096764656
:10077000BC043719009C01D3641C00946400002F52
:1007800001D001263443029E049F754366467E4392
:100790000496760034196E0034190094029C019E70
:1007A0001C196643751BAE46069465464519059CA3
:1007B00005956C43594375460891691A0191049E49
:1007C00001465143A41B0491611A009C0791E10664
:1007D00005D061090122114302E072E06EE0610977
:1007E000089D00272C0A2D066918049D7C412A0AC1
:1007F0002D066918019D6241AC0DAD026D18544182
:10080000079A910D920255196141029A6446584324
:100810005443069B059A5A43121A131B9A0E9B01C6
:100820005B187A41010B0005C3185141220A2006CA
:1008300044195A419A4200D2491C01204002814287
:1008400003D315230226F64302E014230326F643BE
:100850002020C51AA9401746AF40DA400A43204677
:100860000399D8400914731819055118039A38438D
:10087000D2075140AC4009D00122944006D3002257
:10088000401C5141002C01D1400840001E4A9342B7
:1008900012D3012203989206904207DB05204007FD
:1008A00009181A480143C012414004E003204007E0
:1008B0000818C10FC907002009B0F0BD0020F107DA
:1008C000FAE705180C464C4111486D42A04115D37A
:1008D00094181A465A410E48644290410ED30120A2
:1008E0004A004005824209D35A00824206D3594049
:1008F000C90F084AC90700201143DDE70020064957
:10090000DAE700000000FF07FE070000FFFFFF7F9F
:100910000000E0FF0000F07F0000F87F0121C90522
:100920000123411842001B06D3185B0E0AD0C110E8
:100930000722D206891840075242D14201D55200FF
:1009400089187047090208D50146002A03D0C10F53
:10095000C9070020704710467047420202D00020AD
:1009600002497047072109050143F4E70000F87FB9
:10097000F0B5FF252D04C609C209FF2704462E4005
:100980000137CB093E4348402A402B400746002A06
:100990006BD0002B69D0AA4267D0AB4265D000284B
:1009A00000DA32460125ED0529432C4309022002D5
:1009B000090AD21A4B0C7F24E31A434C000A7C44E8
:1009C000E35C7D242404121914145B00A2188842ED
:1009D00001D3521C00E0400049420C465C43241104
:1009E0005C43DB016415E318040A5C43C502200D77
:1009F0000C4644436419250A5D432303EC0C0D4661
:100A0000654300030019EB184C42A34201D35B1865
:100A1000401CD4052018002B07D05B00C91804D354
:100A2000401C002901D1400840003F2189048A422E
:100A300009D3002A08DC1106090F04D00321490755
:100A40004018C00FC007F0BD0122410012068918EE
:100A50007F2252069142F6D205214907C84201D5AC
:100A60009010F0BDFF20C005F0BD002F00DA324627
:100A70001648AA4207D2AB4205D21902090E17D076
:100A8000F80FC007F0BDFF2563002D06AB42F9D873
:100A90004900A942F6D8AB4201D1A942F2D0A942FD
:100AA00001D1002101E061004908D0050843F0BDF3
:100AB0001102090EFBD0FF200243D005F0BD0A460B
:100AC0000146104654E70000527D00000000C07F40
:100AD0001F22030C02D10F2200041CD0030E01D1EF
:100AE0000002083A030F01D10001121F830F01D148
:100AF0008000921E002801DB4000521ED2055118D2
:100B0000021251181922904004D3491C002801D127
:100B10004908490008467047C10FC90700D0404244
:100B2000012292071143D3E701218907D0E710B5CD
:100B300000F0DAFA006810BD10B5044600F0D4FAEF
:100B4000046010BD70B5044685690068C10601D512
:100B5000302600E02026C00707D070BD626830460E
:100B6000A1689047206A401C20626D1EF6D570BDBA
:100B700070B5044685690078C00707D170BD62680A
:100B8000A16820209047206A401C20626D1EF6D587
:100B900070BD09684A0501D540B27047C905FCD54A
:100BA00000B2704709684A0501D5C0B27047C9054F
:100BB000FCD580B2704770B50C460546012A05D0B9
:100BC0002878800600D5EA69002302E0012305E0C9
:100BD0005B1C934202D2E05C0028F9D1A869E618B8
:100BE000C01AA861286AC01828622846FFF7AAFF21
:100BF00004E06A682078A968641C9047B442F8D37E
:100C00002846FFF7B5FF70BDF7B5002575291068B8
:100C1000009914A611D0FFF7BCFF002802DA404269
:100C200011A608E0009909688A0701D50FA602E01D
:100C3000490704D50EA6012501E0FFF7B3FF009F89
:100C40000024243704E000F0AEFE30313955641C36
:100C50000028F8D12B4632462146009800F085FA4C
:100C6000FEBD0000000000002D0000002B00000071
:100C70002000000011680268006A530501D5087061
:100C800009E0D30501D5088005E0130602D5C21797
:100C900005C100E0086001207047000001694A1C9E
:100CA00002610878704700B58FB00291002105916C
:100CB000054901937944039111460490684600F078
:100CC0002DF90FB000BD0000E5FFFFFF0A681070AE
:100CD000521C0A6070470CC908399A4202D2531C50
:100CE0000B60107070470000F7B50446154686B0DB
:100CF0002B487844002703C83E460090019111E03C
:100D000007986A467100415A02A800F02BFE411C68
:100D100007D02178890603D5E269391891420ED8A7
:100D20003F18761C2078800602D5E069B84206DDBF
:100D3000AE42E5DB07987100405A0028E0D1A06977
:100D4000C01BA0612046FFF7FDFE154878445A38C5
:100D500003C800900020019116E041006A46079800
:100D6000415A02A800F0FEFD0590401C0AD0002563
:100D700005E0626802A8A168405D90476D1C059877
:100D80008542F6D30498401CB0420490E5DB206A0B
:100D9000C01920622046FFF7EBFE09B0F0BD00004D
:100DA0009E7A0000F7B5D21D0025D20815A6D20004
:100DB000F52905CA11D0002A05DA002140429141E7
:100DC00011A60A4608E0009909688B0701D50FA60D
:100DD00002E0490701D50EA601251146009F002417
:100DE000243704E000F084F930323A55641C02469E
:100DF0000A43F7D12B4632462146009800F0B5F958
:100E0000FEBD0000000000002D0000002B000000CF
:100E10002000000070B504460021243408E0550786
:100E2000D2086D0F303565545D072A43DB08491C35
:100E300015461D43F3D10468002310A2250708D5E9
:100E400020252C400C4304D0C46901230CA2641E4D
:100E5000C46100F08AF970BD10B5044621461068DF
:100E6000FFF7A0FE002302462046FFF7D3FF10BD88
:100E7000D21DD108C9000CC9CCE700000000000059
:100E800030000000F8B50F460188090502D5224C54
:100E90007C4402E0204C7C440E340546002124357D
:100EA00008E016071209360FA65D6E541E0732437E
:100EB0001B09491C16461E43F3D122460478002321
:100EC000240705D5702F06D0002901D00223113246
:100ED00000F04BF9F8BD01231032F9E770B5044674
:100EE0000D4621461068FFF75DFE002302462946A5
:100EF0002046FFF7C7FF70BDD21DD308DB000CCB27
:100F0000C0E730B403682024126823430360082339
:100F1000C36130BC0023B5E708790000F3B504468F
:100F2000002081B020622046E1688847002872D006
:100F3000252802D06268A168ABE0594F00267F44A3
:100F40002046E16888472028054608DB312D06D277
:100F5000781920380078002801D00643F0E7B00760
:100F600001D5042086430020E0610746A0612A2DB8
:100F70000AD0284607F09DF9002827D0B8000019AC
:100F8000303D0090856119E00298BA00121902C83C
:100F9000916102902046E1688847012F054617D1EC
:100FA000E06900281FDA202086431CE000980A210F
:100FB0008069484300994019303888612046E168CB
:100FC0008847054607F075F90028EFD1012F0AD0B0
:100FD0002E2D08D12046E16888470546202006438B
:100FE0007F1C022FC3DBA069002803DA4042A06106
:100FF00001200643F00701D0102086436C2D0BD052
:10100000682D09D04C2D3CD06A2D38D0742D38D0A5
:101010007A2D36D016E040E0E1682F46204688471A
:10102000B842054609D16C2F29D001208002E16821
:10103000064320468847054604E06C2F1DD0FF205C
:1010400001300643002D28D028464138192803D8FE
:101050000120C00206432035204626602946029A18
:101060001646FFF779F8002810D001280BD0F61D9E
:10107000F008C0000830029055E74020E1E78020EA
:10108000D5E70020D3E7361D02964CE76268284674
:10109000A1689047206A401C44E7206AFEBD00001A
:1010A0008278000010B5FF22C30D134009D05A40CA
:1010B00007D0914205DA5C42A14202DDC905081859
:1010C00010BDC40FE407002B06D0002A06D000296B
:1010D00002DBFF20C0050443204610BD4102FCD0C6
:1010E000004810BD0000C07F00487047400000204D
:1010F0000B4670B5024689078008084319469D08CB
:10110000141AA94125090807054308092C19484163
:10111000250A01060D43010A2C194141200C0D043A
:1011200028430D0C00194D41002140194D41C008C4
:1011300069070843E908840F8D00254384002418BB
:101140004D4124196D41121BAB4107E00925ED43C8
:101150002C11521963410024401C61411C460A2590
:101160000026551BB441F1D270BDFFB504460D46B3
:1011700081B0243000902168880604D51022E069EF
:101180009143216000E00120A84201DD471B00E0FF
:1011900000270498A1697A191018081AA06120780C
:1011A000C00602D42046FFF7CDFC002608E00398D5
:1011B0006268A168805D9047206A401C761C2062AE
:1011C00004988642F3DB2078C0060AD52046FFF754
:1011D000B9FC06E06268A16830209047206A401C94
:1011E000206238467F1E0028F4DC07E00098626821
:1011F000A168405D9047206A401C206228466D1E11
:101200000028F3DC2046FFF7B3FC2078000602D567
:10121000022005B0F0BD0120FBE70000FFB50C4641
:101220001E468FB003CA089009914F007D0D00D172
:101230006D1E002108460020C0460321099A890539
:101240000840002A03DA8200801840080840800D18
:1012500001280A9002DD0020C0430A900898074345
:101260000DD0F048F0492818484307141898002872
:101270001DD07542291E1DDD0A9842421BE01898B8
:10128000012802D00020302104E00020F24305E0D4
:101290002154401CB042FBDB30460022189B002149
:1012A00021540F998B600A60486013B0F0BDBD1BDC
:1012B0006D1CDFE70A9A002900DA69420BA800F0EA
:1012C0002DFC0BAB07CB03AB07C30899099800F0C3
:1012D00091FC6B4607C30146D4480918002D0091C4
:1012E0000BDDD24903980A9A49424018002303A90A
:1012F0000390684600F0EEFE08E003990A9A002386
:10130000081803A90390684600F08EFE6B4607C3D9
:101310000004000C03D00020C043410800E0104648
:10132000189A002A03D00022009215461EE0751E6E
:1013300005D4FFF7DDFE303262556D1EF9D501226E
:101340000843079602D000227F1C04E02078302852
:1013500001D100227F1E002A069787D01EE0112DA2
:1013600007DAFFF7C5FE303262556D1C02460A43AC
:10137000F5D1084303D00098002819D00EE00021D1
:10138000681E05E0235C625C63542254401E491CC5
:101390008142F7DBA81B401E07950690079A189913
:1013A0000020A0540F98079B069A81600CC07CE730
:1013B00011260020189059E7D21DF0B50D460446BD
:1013C000D10893B0C90003C90C900D9106F03CFF01
:1013D00002460D98C00F01D02D2007E0206881073C
:1013E00001D52B2002E04007C00F4001032A0F90D7
:1013F00001D0072A05DB03462946204600F04AFBB8
:101400000EE12078800601D5E76900E0062728462E
:10141000652D04D0662814D0672D69D12DE00020F9
:10142000112F009001DB112300E07B1C0CAA03A903
:1014300010A8FFF7F3FE1199002610987D1C0E915D
:1014400042E001203B460CAAC0070B90012000900F
:1014500003A910A8FFF7E2FE119D1298109900262B
:1014600000280E9501D1781C0D18781B02D4464235
:101470007D1C761EE81B00903AE0012F00DA012760
:101480000020112F009001DD112300E03B460CAA43
:1014900003A910A8FFF7C2FE11993D461098002637
:1014A0000E91217809070BD40E99A94200DA0D4656
:1014B00003A9012D04DD4A19203AD27F302A06D033
:1014C000B84201DA011D04DA012100910FE06D1E1E
:1014D000EFE7002802DC86192D1A03E0411CA9421F
:1014E00000DD0D46801B401C00900120C0070B90C2
:1014F0002078000705D40098A84202DB0020C043F2
:10150000009069460020C8720B98012102AF033792
:10151000C907884225D0022010902B2011900B98EB
:1015200000280BDA40420B902D20119006E00B981A
:1015300000F039FA30317F1E0B9039701099481E37
:1015400000291090F3DC0B980028F0D111987F1E31
:1015500038702088000501D5452000E065207F1EF9
:10156000387001A8C01BC01D0B900F98002800D038
:10157000012041190098C01709180B980818A16993
:10158000081A401EA0612078C00602D42046FFF74A
:10159000D9FA0F98002805D06268A1689047206AA0
:1015A000401C20622078C00625D52046FFF7CAFAE5
:1015B00021E0002E07DB0E98B04204DD03A862682C
:1015C000805DA16802E06268A16830209047206ACF
:1015D000761C401C20620098401E002800900AD112
:1015E00000F054FAC06862680168405CA1689047E6
:1015F000206A401C206228466D1E0028D9DC07E0C6
:1016000062683878A1687F1C9047206A401C20627D
:101610000B99481E00290B90F2DC2046FFF7A8FA30
:10162000032042E601FCFFFF104D0000E1DFFFFF59
:10163000D21DF0B504460D46D0088DB0C0004668F6
:1016400007683146384606F0FFFD0246F00F01D02C
:101650002D2307E02068810701D52B2302E04007F6
:10166000C00F43016846002B037001D0012000E049
:101670000020032A0A9001D0072A04DB29462046CD
:1016800000F008FA2DE12078800601D40D2500E055
:10169000E5697000400D0D2D01904BDA300D0021F1
:1016A0000B9008460020C046032189050840002E03
:1016B00005DA82008018C20F10184010084080150B
:1016C000012801DD0020C043A9000023182906D30A
:1016D0009C460A460123183A1B07D34003E0012227
:1016E0001205CA4094460C31202902D33A462039CB
:1016F00000E032468A40002802DD002A06D119E0C7
:10170000002817D10121C9078A4213D3194663461D
:101710007F185E41002806D10120C007824202D115
:10172000084687439E430B98310D814202D00198B1
:10173000401C01902088000502D57149794402E0DF
:101740006F49794419396B460A9830221A540A981D
:101750000A7C401C1A54401C0A900198002801DCA5
:10176000302000E031201872019A0120002A02D0B6
:10177000644BD21804E072003A4302D0614A521C12
:101780000192002D02DC2278120703D56A462E2032
:10179000507202200022864694460CE03203360145
:1017A000120F6D1E8B5C02AA13546246521C401C21
:1017B0009446052A01DA002DF0DC002202AE08E092
:1017C0003B0F3F01CB5C521C6D1E3354401C082A5A
:1017D00001DA002DF4DC23689A0601D511E0401EE1
:1017E000704504DD3218203AD27F302AF7D0002825
:1017F00007DD3218203AD27F2E2A02D11A0700D4F0
:10180000401E002D03DD3E223254401C6D1E497CDB
:1018100031540199401C002906DA2D21471C31540E
:1018200001984042019003E02B21471C315401985C
:101830007D21C900884206DBFEF75EFE3030F055A0
:101840007F1C019101E0642808DB01986421FEF708
:1018500053FE3030F0557F1C019101E00A2806DB71
:1018600001980A21FEF748FE3030F0557F1C0198A0
:101870000A21FEF741FE3031F1550A98A1697F1C1B
:101880007A191018081AA0612078C00602D42046E0
:10189000FFF758F9216A6E460A980818206204E09A
:1018A00062683078A168761C90470A98401E0A90BA
:1018B000401CF5D12078C00602D52046FFF742F93A
:1018C00002AE09E03078761C3E280DD06268A1682F
:1018D0009047206A401C20627F1EF3D22046FFF70B
:1018E00047F90DB00320F0BD206A4019206203E0E3
:1018F0006268A168302090476D1EEDD3F8E70000C4
:10190000A870000001FCFFFF10B54369002B02D056
:10191000C046C04601E0FFF74EF9012010BD127825
:10192000014624310A7000224A700122ECE7116856
:101930000022D243E8E710B54369002B02D0C0462D
:10194000C04601E0FFF7D0F9012010BD1288014622
:10195000243182840022C2840122ECE71168002233
:10196000D243E8E7F8B516460C46054600F086F87F
:101970000368FF200230C05C012807D0FF2C0FD87D
:10198000185D00280CD001202C70F8BDFF333246C2
:10199000214608331868C71828460023B847F8BD01
:1019A0000020C043F8BD01468008081A020910183B
:1019B000020A1018020C1018C008820012185200F7
:1019C000891A01E0401C0A390A29FBD2704700003D
:1019D00010B5FF231B0644009C421DD84C009C42BE
:1019E0001AD80346124A0B4307D4401A02D3EFF326
:1019F000008010BDEFF3008010BD081A03D3EFF391
:101A00000080904305E0EFF3008001219043C90777
:101A1000084380F3008810BD0D231B041A4204D034
:101A20001146002000F0AEFB10BD00F0C3FB10BD5E
:101A30000000009000487047400000207546FFF706
:101A4000F9FFAE46050069465346C008C00085460A
:101A500018B020B5FEF71CFC60BCB6460026002777
:101A6000C0C5C0C5C0C5C0C5C0C5C0C5C0C5C0C54E
:101A7000403D490849008D467047000010B500F010
:101A800005F8001D10BD00BFE16900000048704767
:101A900060000020F8B51F46044601230068DB0201
:101AA000032601461840072A05DB002801D017A5A8
:101AB00006E017A504E0002801D016A500E016A551
:101AC000102081432160A069C01E002FA06101D0B9
:101AD000401EA0612046FFF735F8002F09D0384698
:101AE0006268A1689047206A401C2062C01C206286
:101AF00006E0206AFAE762682878A1686D1C9047C2
:101B0000761EF8D22046FFF733F8F8BD4E414E005E
:101B10006E616E00494E4600696E6600F7B5164666
:101B20008AB0334878446C4603467C33C06F5A68A9
:101B30009B680DC42E487844763003AC0DC80DC4A4
:101B40003720C001081837211B30FEF7D5FC0546A9
:101B50000C46803D1B3C02D56442012000E0002081
:101B60000027099010E0E0070CD00C2020497843B2
:101B7000794432464C3941186846012300F054FA42
:101B80006B4607C364107F1C002CECD1184F7F44B8
:101B90002E3F16E0E80712D02001C0190EC80691AA
:101BA000089307920068F04201D1981908903246D4
:101BB000012306A903A800F037FA03AB07C36D1091
:101BC000641C002DE6D10998002806D032466946EB
:101BD000012303A800F07EFA05E00123324669469E
:101BE00003A800F021FA0A9B07C30DB0F0BD000066
:101BF000D46C0000034640000A4610B5400D0BD0DF
:101C00000121C9070F24A40200191C036408214301
:101C1000540D2143D20207E000210120F2E7D40F46
:101C2000490021435200401E0029F8DADB0FDB0790
:101C3000184310BDFFB50D46144685B0486851687D
:101C400006F0EAFA00910190A868A16806F0E4FAAB
:101C500002910390A868616806F0DEFA029A1218F1
:101C60008242029201D2012000E00020019A0B186A
:101C7000D2180028019202D08A4202D903E08A4297
:101C800001D2012000E00020009908180090686847
:101C9000A16806F0C1FA029A12188242029201D299
:101CA000012000E00020019A0B18D21800280192B0
:101CB00002D08A4202D903E08A4201D2012000E028
:101CC0000020009908180090286821684000490009
:101CD000400849084018FA49471814E001994000A3
:101CE000C90F08430090019802994000C90F0843AA
:101CF0000190029803994000C90F0843029003988D
:101D000040007F1E039000980028E7DA089800281A
:101D100001D0EC4E00E00026B74201DA012000E0DD
:101D20000020002804902AD0F71BF806C00E15D01A
:101D3000029B2021091A039A8B401A430392029AAC
:101D4000019BC2408B401A430292019A009BC24001
:101D50008B4000991A430192C14000917B110DD034
:101D60006F460320C11A03D500218200B95003E059
:101D70008A008100BA587A50401EF3D5374603983E
:101D80000299002800D00120014308980291002800
:101D900008460CD0002800D001200199019A49057D
:101DA00008430121D20AC902D202019200E00121B6
:101DB0000E9B0122D207012B02D0002B03D013E08F
:101DC000002807D120E0904204D890420CD1019B1A
:101DD0000B4209D0019B5918019105D10099491C6A
:101DE000009101D17F1C009200280DD010210846DF
:101DF0000020C0460498002806D00F98002803D081
:101E0000082108460020C04628682168019B009AE6
:101E10004840C10F0598C90739430EC009B0F0BD4D
:101E2000FFB587B0099A0898089953689268406886
:101E3000896896460022039317469446089A1268CA
:101E40005300099A5B081268520052089A1A9E4B76
:101E5000D4180A9A002A01D0352200E040220692C6
:101E60000022012315460492DB07059324E0002D90
:101E700005D175460346039E4D1BB34109D37546F4
:101E80006646039B491B049D9841059B7519AC460A
:101E90005F4163463B4308D0059B049EDD077608FF
:101EA0002E435B080496059301E0521E641EC50F85
:101EB000ED0749184041521C069B9A42D7DB002D82
:101EC00004D17546039A6B1A824101D203200CE0BB
:101ED000039A0B466B404240134303D0014303D0A7
:101EE000012002E0022000E0002061460191002173
:101EF000009702910A99002905D0614640020143EA
:101F0000704B019102E08007002302909C4201DAAD
:101F1000012000E0002007003AD01A1BD006C00EB6
:101F200015D0029D2021019C091AC5408C402543F3
:101F3000029C8C4000D001242543019C0295009D09
:101F4000C4408D4000992C430194C140009154112C
:101F50001DD06D460221002202290CD10320001B56
:101F600007E0002804DB8600AE59002E00D00122D5
:101F7000401C0328F5DB081B02D588002A5004E02A
:101F80008000285810438A00A850491EE3D51C46FB
:101F90000A98002802980CD0002800D0012001994E
:101FA000019A490508430121D20AC902D2020192CD
:101FB00000E00121109B0122D207012B02D0002B4F
:101FC00003D013E0002807D11FE0904204D89042CC
:101FD0000CD1019B0B4209D0019B5918019105D1ED
:101FE0000099491C009101D1641C009200280CD07A
:101FF000102108460020C046002F06D01198002866
:1020000003D0082108460020C04608980999019A83
:10201000009B006809684840C10F0798C907214321
:1020200082600AC00BB0F0BD00B585B0019300928C
:102030000A460146002302A8FFF7FCFD02A807C8D4
:1020400005B000BDFFB50A461F4685B0079901934C
:1020500001230091014602A8FFF7ECFD02990398C5
:10206000049ECA0F4900D20700920F22490892022B
:102070008C1A0021002800DB0C46450013486D082F
:10208000844214D3079A002A04DA441E0026104D15
:10209000F64302E004460D460E4610210846002095
:1020A000C046002F03D0042108460020C04620056A
:1020B000E90A0843009908436905F20A1143ADE6AD
:1020C00002C0FFFF013C0000FF3F0000FF070000CF
:1020D000FFFFFF7F00B585B0019300920A460146DD
:1020E000002302A8FFF79CFE02A807C8A8E7FFB5D7
:1020F0000A461F4685B007990193012300910146C6
:1021000002A8FFF78DFE02990398049ECA0F4900AA
:10211000D20700920F22490892028C1A002100284F
:1021200000DB0C46450011486D08844214D3079A21
:10213000002A04DA441E00260D4DF64302E0044650
:102140000D460E46102108460020C046002F03D041
:10215000042108460020C0462005E90A08430099EA
:1021600008436905F20A114358E60000FF07000022
:10217000FFFFFF7F10B50446C046C0462046FEF76D
:1021800077F810BDC80212D54803400F002804D0CC
:10219000C803C043012188407047EFF3008000016D
:1021A000000903210907084380F3008870470020D5
:1021B0007047000010B5024800F048F810BD00005C
:1021C0000000C07F024670B50A4392072AD11E4D17
:1021D000EE0104C808C9541B9443344017D0D0B250
:1021E000D9B2401A2106014310D190B299B2401AD7
:1021F000210401430AD110021902000A090A401AF7
:102200002102014302D1100E190E401A70BD9A42EC
:10221000DFD010BA19BA884201D9012070BD002060
:10222000C04370BD02780B78401C491C002A09D0BD
:102230009A4207D102780B78401C491C002A01D031
:102240009A42EFD0D01A70BD0101010110B50C46C1
:102250001107090F092904D00A290AD008290CD12D
:1022600004E011460820FFF78DFF06E0510606D571
:1022700001E0510601D50120C007214610BDD1065D
:1022800007D501010909CC084907000E00060443DF
:1022900009E0410F20024907000A0143200E000611
:1022A0001D22D14101430846E7E7000001491820FB
:1022B000ABBEFEE726000200704780B582B00190F9
:1022C0000198806A00900098406D5021084244D1E6
:1022D000FFE70099486D01225202104348650098BB
:1022E0000068C0680005800F002832D1FFE7009821
:1022F0002021405C00282CD1FFE70098006800688E
:102300000007002824D5FFE70098006880680421B2
:102310000840800800280FD1FFE70098016848684E
:102320000C22904348600098406D01210843090247
:102330008843009948650AE00099486D20221043BF
:1023400048650099886D012210438865FFE7FFE723
:10235000FFE7009800F0BEFB05E00098C06C416B01
:1023600001988847FFE702B080BD80B582B0019038
:102370000198806A00900099486D4022104348659A
:102380000099886D042210438865009800F0BAFB1C
:1023900002B080BD80B582B001900198806A009043
:1023A000009800F0ABFB02B080BD000080B584B0A7
:1023B000039003980190094800680949FEF792F8D4
:1023C000019948430290FFE70298002804D0FFE7F4
:1023D0000298401E0290F7E704B080BD080000207C
:1023E00040420F0080B584B0029000200190029915
:1023F00009688968032211400129009005D1FFE78F
:102400000298006800680090FFE70098C007002865
:1024100045D1FFE7029800688068254908420DD041
:10242000FFE70299486D102210434865029A916DAA
:1024300001200143916503A9087034E00298026805
:102440009168012001439160FFF7B0FF01F088F926
:102450000190FFE7029800680068C00700281DD1BE
:10246000FFE701F07DF90199401A0B2815D3FFE72A
:10247000029800680068C00700280DD1FFE70299A4
:10248000486D102210434865029A916D0120014366
:10249000916503A9087006E0FFE7DBE7FFE703A902
:1024A00000200870FFE703A8007804B080BDC04694
:1024B0001700008080B5024800F0F1FD80BDC046E5
:1024C000D005002084B003900291019200930399FB
:1024D0004A6C1C20024001209040096C4860009822
:1024E00003990968486003988068102809D1FFE7BC
:1024F0000198039909688860029803990968C8607F
:1025000008E00298039909688860019803990968AE
:10251000C860FFE704B0704780B5012000F06AFF93
:1025200080BD81B0EFF3108072B60090FFE7FEE748
:1025300082B00190EC480078002803D1FFE700202A
:1025400000900BE001998803420EE848805C490541
:10255000490FC840012108400090FFE7009802B0F1
:102560007047C04680B584B0FFE7F54880690290A7
:1025700000F0EAF903900398029988420DD2FFE730
:1025800003F01EFD002807D1FFE7FA490869401C47
:10259000086104F099FDFFE7FFE7039804F09CFD54
:1025A0000190FFE7029801998842DED1FFE7039886
:1025B00004B080BD80B588B0059004910392059861
:1025C000FFF7B6FF002803D1FFE7012006901CE0CB
:1025D000FFF7C8FF029005A800880590EFF305807B
:1025E00007900798411E8841C1040598084305904B
:1025F00005980321090608430299049A039B00F0F9
:1026000007F8019001980690FFE7069808B080BD92
:1026100080B58CB00A900991089207930720059025
:10262000FFE70598002860D0FFE700F09DF90490CF
:1026300004988006810DB0484018069004988003E5
:102640000F210905084001900A980199084309994A
:10265000C90F090708430899C90F49070843079993
:10266000C90F890708430321890608430390069888
:102670000C30039903F078FC039003A8C07840075E
:1026800000282DD5FFE7039801218A0650400390CA
:102690000398C9074840039003980840029009989E
:1026A00016490840029A1043069A1060089808409C
:1026B000029A1043069A506007980840029908430E
:1026C0000699886006980C30039904F0D5FC002820
:1026D00005D0FFE703F040FC01200B900AE004E086
:1026E000FFE70598401E05909BE703F02FFC0020B4
:1026F0000B90FFE70B980CB080BDC046FFFFFF7F3B
:1027000087B00590049103920498FE2804D8FFE74F
:102710000398FF2803D3FFE70020069034E0002051
:1027200002900190FFE7019803282AD8FFE7059857
:102730000199C840C00700281BD0FFE7049800900B
:10274000FFE700980399884212D8FFE70099072213
:1027500008461040012383400298C9084218634983
:10276000885C18438854FFE70098401C0090E8E715
:10277000FFE7029820300290FFE70198401C01908B
:10278000D1E701200690FFE7069807B07047C046E2
:1027900080B58AB0099008917649019100200870AF
:1027A00052488021FDF79CFE5148182104F056FD47
:1027B0000146019806AA1180006A4E49884208D055
:1027C000FFE76C494B480862069848800120C861C1
:1027D00012E06848408806A90988884206D0FFE7C9
:1027E0000698644948800120C86104E06149C869CD
:1027F000401CC861FFE7FFE75E48C06901280CD1B3
:10280000FFE75C490020487048608860C8603A482B
:1028100001218902FDF764FE1EE000200290FFE71F
:1028200002983F2817D8FFE7029801013248401864
:1028300007900798C07B4007002807D5FFE7079956
:10284000C868032292069043C860FFE7FFE702983A
:10285000401C0290E4E7FFE74648C069012817D111
:10286000FFE700F079F804900498002804D0FFE70F
:1028700000F070F8059002E000200590FFE7059851
:102880003C4948610020886108611C49087002E0E9
:1028900001200490FFE70498002822D0FFE7099860
:1028A0000021FE220092FFF72BFF0F20EF2211469E
:1028B000FFF726FF009A04201146FFF721FFFFF7DC
:1028C00051FE039003992B48C26943690C48FFF7F6
:1028D0009FFE0898002803D0FFE700F013F8FFE7F9
:1028E000FFE704980AB080BD000C0020800B002098
:1028F000A88800086B27A5E180070020CF040020EE
:1029000000FF000380B584B01A480078002803D087
:10291000FFE7012003900FE01649012001900870A5
:10292000FFF720FE02900299064800231A46FFF79F
:102930006FFE01980390FFE7039804B080BDC04686
:10294000000C002001FF0003064A1068411C1160C2
:102950007047C046002070470249002008600120EF
:102960007047C046240C002080B50248001D04F0CA
:1029700017FC80BD000C002080B584B0029001914E
:10298000FFE702985021405C012804D1FFE703A92A
:102990000220087093E00299502201208854FFE73A
:1029A000FFE702980068806804210840800800283A
:1029B0000FD0FFE70299486D202210434865FFE7DA
:1029C0000299502200208854FFE703A901200870D3
:1029D00075E0019840683C49884234D0FFE701988F
:1029E00002683B48024002980168886A1043886286
:1029F00001988078400700280AD5FFE7ED4908686C
:102A00000122D205104308600A20FFF7CFFCFFE740
:102A1000019880788007002807D5FFE7E549086816
:102A20000122920510430860FFE701988078C007F3
:102A3000002807D0FFE7DF4908680122120610438B
:102A40000860FFE731E001980068C2431F48024375
:102A500002980168886A104088620198807840076F
:102A6000002807D5FFE7D34908680122D205904323
:102A70000860FFE7019880788007002807D5FFE706
:102A8000CC4908680122920590430860FFE701984D
:102A90008078C007002807D0FFE7C64908680122F0
:102AA000120690430860FFE7FFE7FFE70299502214
:102AB00000208854FFE703A900200870FFE703A85F
:102AC000007804B080BDC046011000000000F8FF8F
:102AD000FFFF070080B582B0019006480022114632
:102AE000FFF768FD02F0ECF9034805F0EFFA02B0D9
:102AF00080BDC04604000100280C002081B0009079
:102B000001B0704781B0009001B0704780B584B0CB
:102B100002900298002804D1FFE703A90120087061
:102B200043E10298406D00280AD1FFE70299002096
:102B30008865029950228854029800F03FF9FFE717
:102B40000298406D10210840102809D0FFE7029834
:102B50000068806804210840800800280FD0FFE743
:102B60000299486D102210434865FFE702995022F0
:102B700000208854FFE703A90120087015E102989E
:102B8000406D0221084301210902884302994865EA
:102B9000029800688168032001400020012901900B
:102BA00005D1FFE70298006800680190FFE70198EF
:102BB000C007002845D1FFE7FFE7029840680321DE
:102BC000890788420ED0FFE70298406801218907F3
:102BD000884207D0FFE7029840680121C907884270
:102BE0000ED1FFE70298016808690322920790431B
:102BF000086102984268016808691043086112E0A0
:102C000002980168086903229207904308616949A4
:102C100008680F229204904308600298426808688E
:102C200010430860FFE7FFE702980168C8681822B0
:102C30009043C860029882680168C8681043C86001
:102C4000FFE75C4908680122520690430860029839
:102C5000406B42060868104308600298006880686C
:102C6000C000002808D4FFE70298016888680122A4
:102C7000120710438860FFE702980168C8684E4A4F
:102C80001040C86002980090C2680169891E4B42DA
:102C9000594189000A432021415C49030A432C2100
:102CA000415C49000A43016B0A43816989030A4375
:102CB000C169C9030A430168C8681043C860029823
:102CC000406AFF21C231884209D0FFE70298426A78
:102CD000816A0A430168C8681043C860FFE7029828
:102CE0002121405C01281AD1FFE702982021405C95
:102CF000002808D1FFE702980168C8680122120481
:102D00001043C8600AE00299486D202210434865CC
:102D10000299886D012210438865FFE7FFE702985A
:102D2000C06B012818D1FFE7029801680869FF22EB
:102D30009200904308610298026C416C0A43816CD6
:102D40000A4301680869104308610298016808692C
:102D50000122104308610EE0029800680069C00774
:102D6000002807D0FFE70298016808690122904314
:102D70000861FFE7FFE7029801684869072290436E
:102D800048610298826B0168486910434861029962
:102D9000002088650299496D012211430222914366
:102DA000029A516503A90870FFE703A8007804B0F0
:102DB00080BDC046082701401902FEFF80B58CB0D7
:102DC0000B9000200A9009900890079006900B98AD
:102DD00000682D49884254D1FFE72C490868012238
:102DE000520210430860FFE72948026804210A43A1
:102DF00002600068084005900598FFE7FFE7244857
:102E0000026801210A4302600068084004900498A7
:102E1000FFE70C200690032000900790002002900E
:102E200008901C4806A9019100F0FAFA009A01994D
:102E300002980692079208900520000700F0F0FA29
:102E4000029915480390154A026041608160C16093
:102E50008022026101221302436192028261C161F8
:102E6000016200F0CBF9002803D0FFE7FFF759FB20
:102E7000FFE7FFE70B980849C1640B988862FFE7FA
:102E8000FFE70CB080BDC046002401403410024072
:102E90002C10024000080050D0050020080002401D
:102EA00080B586B004900391029201A900200870B9
:102EB00004980068806804210840800800285FD1D9
:102EC000FFE7FFE704985021405C012804D1FFE7A9
:102ED00005A9022008705BE0049950220120885463
:102EE000FFE7FFE704980168C86801221043C86043
:102EF0000498C069012806D0FFE70498FFF772FA2A
:102F000001A90870FFE701A80078002837D1FFE782
:102F10000498406D0121090208431F4908400499A3
:102F20004865049900208865FFE704995022002035
:102F30008854FFE70498C16C1848C8620498C16CB3
:102F4000174808630498C16C1648486304980168E0
:102F50001C200860049801684868102210434860EB
:102F60000499C86C09684031039A029B00F0B4F9D7
:102F7000049801688868042210438860FFE703E032
:102F800001A902200870FFE7019805A90870FFE772
:102F900005A8007806B080BDFEF1FFFFBB22000847
:102FA000952300086B23000883B001906946002038
:102FB000087001982521405C02280DD0FFE7019997
:102FC0000420C863FFE70199242200208854FFE70A
:102FD00002A90120087020E00198016808680E220B
:102FE00090430860019802681168012081431160D4
:102FF000019A536C1C210B4001469940126C5160A0
:10300000019925228854FFE7019924220020885441
:10301000FFE7009802A90870FFE702A8007803B054
:10302000704780B582B00190694600200870019811
:103030002521405C022807D0FFE701990420C863DE
:1030400069460120087026E00198016808680E2290
:103050009043086001980268116801208143116063
:10306000019A536C1C210B4001469940126C51602F
:10307000019925228854FFE70199242200208854D1
:10308000FFE70198806B002804D0FFE70198816B6F
:103090008847FFE7FFE76846007802B080BD80B54B
:1030A00084B003900398006C006802900398006855
:1030B0000068019002980399496C1C221140C84095
:1030C0004007002826D5FFE701A800784007002820
:1030D00020D5FFE70398006800688006002807D421
:1030E000FFE7039801680868042290430860FFE73F
:1030F00003994A6C1C20024004209040096C4860EF
:103100000398006B002804D0FFE70398016B884701
:10311000FFE770E002980399496C1C221140C840F7
:103120008007002830D5FFE701A800788007002835
:103130002AD5FFE7039800680068800600280BD4B2
:10314000FFE70398016808680A2290430860039922
:10315000252201208854FFE703994A6C1C20024075
:1031600002209040096C4860FFE703992422002068
:103170008854FFE70398C06A002804D0FFE703984B
:10318000C16A8847FFE735E002980399496C1C2221
:103190001140C840000700282AD5FFE701A80078A1
:1031A0000007002824D5FFE70398016808680E226D
:1031B00090430860039A536C1C2003400120014691
:1031C0009940126C51600399C86303992522885471
:1031D000FFE70399242200208854FFE70398406BFF
:1031E000002804D0FFE70398416B8847FFE700E021
:1031F000FFE7FFE7FFE704B080BD000080B584B0C3
:1032000002900298002804D1FFE703A9012008706A
:1032100055E00298009000682B4940181421FDF7F2
:1032200061F900998000486402992848086402996D
:1032300025220220885402980068006801900198B5
:1032400023490840019002988168C26811430269CD
:1032500011434269114382691143C2691143006AF3
:103260000143019808430190019802990968086098
:103270000298806801218903884213D0FFE70298F1
:10328000406C1C2318400F2282401249086890436A
:10329000086002984268406C1840824008681043F9
:1032A0000860FFE702990020C863029A25230121E4
:1032B000D15402992422885403A90870FFE703A877
:1032C000007804B080BDC046F8FFFDBF000002409A
:1032D0000F80FFFFA800024080B586B004900391E4
:1032E00002920193694600200870FFE704982421A8
:1032F000405C012804D1FFE705A9022008704CE0DA
:103300000499242201208854FFE7FFE7049825212F
:10331000405C012833D1FFE704992522022088541C
:1033200004990020C863049801680868012290434A
:10333000086004980399029A019BFFF7C3F8049868
:10334000006B002807D0FFE70498016808680E2288
:10335000104308600CE00498016808680422904358
:1033600008600498016808680A2210430860FFE7B3
:1033700004980168086801221043086009E0FFE72B
:103380000499242200208854FFE76946022008702F
:10339000FFE7009805A90870FFE705A8007806B0C8
:1033A00080BD000080B584B0039000F0D9F9029090
:1033B000039801900198401C002806D0FFE70948B7
:1033C0000178019840180190FFE7FFE700F0C8F985
:1033D0000299401A0199884201D2FFE7F6E704B04A
:1033E00080BDC0460C00002081B06946088001B055
:1033F0007047000080B582B001A9088007480068C6
:103400000988084208D0FFE701A80188034A116033
:103410000088FFF7E9FFFFE702B080BD1404014018
:103420008CB00B900A910020099008900790FFE75C
:103430000A9800680999C840002800D162E10A98FA
:103440000068099A012191400840089008980028D6
:1034500000D153E10A98406803210840012807D0B1
:10346000FFE70A9840680321084002282CD1FFE7B3
:103470000B988068079009984000032181400798C5
:10348000884307900A98C1680998400081400798CE
:103490000843079007980B9988600B98406807903D
:1034A0000998012181400798884307900A9840684D
:1034B00010210840010909988140079808430790A6
:1034C00007980B994860FFE70A9840680321084075
:1034D000032816D0FFE70B98C068079009984000B2
:1034E000032181400798884307900A9881680998CA
:1034F0004000814007980843079007980B99C860DF
:10350000FFE70A98406803210840022820D1FFE71E
:103510000B980999C90889004018006A0790099812
:103520004007C00E0F2181400798884307900A98F2
:10353000016909984007C00E814007980843079029
:1035400007980B99099AD208920089180862FFE738
:103550000B980068079009984100032002468A40B2
:103560000799914307910A994968014009984000D9
:10357000814007980843079007980B9908600A98BC
:1035800080798007002800D1B7E05F4908680122F0
:10359000104308600998032188435C49405807900C
:1035A00009988007000F0F218140079888430790F2
:1035B0000B9805210907884203D1FFE700200690F8
:1035C00038E00B985249884203D1FFE7012005906B
:1035D0002DE00B984F49884203D1FFE70220049069
:1035E00022E00B984C49884203D1FFE70320039067
:1035F00017E00B984949884203D1FFE70420029065
:103600000CE00B99464A0520062300939142019055
:1036100001D00098019001980290FFE70298039072
:10362000FFE703980490FFE704980590FFE70598EB
:103630000690FFE7069909988007000F81400798D8
:103640000843079007980999032291432F4A88500D
:1036500034480068079008990798884307900A98AB
:103660008079C007002805D0FFE70899079808432C
:103670000790FFE707982B4908602B4800680790E0
:1036800008990798884307900A988079800700284E
:1036900005D5FFE70899079808430790FFE70798C3
:1036A00021490860214800680790089907988843D5
:1036B00007900A988079C006002805D5FFE7089989
:1036C000079808430790FFE70798184908601848CB
:1036D0000068079008990798884307900A988079AE
:1036E0008006002805D5FFE708990798084307904A
:1036F000FFE707980E490860FFE7FFE70998401CBD
:10370000099095E60CB07047341002400800014063
:103710000004005000080050000C00500010005041
:10372000001C005000040140040401400804014052
:103730000C04014083B0029001A801806846027029
:103740000078002805D0FFE701A800880299886169
:1037500004E001A8008802998862FFE703B070477F
:10376000014800687047C046800C002010B583B047
:103770000190009101984121405C202839D1FFE758
:10378000FFE701984021405C012804D1FFE702A92E
:103790000220087031E00199402201208854FFE79F
:1037A000FFE70199412224208854019801680868A4
:1037B0000123984308600198016808681C03A0432E
:1037C0000860009C0198016808682043086001981F
:1037D0000168086818430860019920208854FFE7B1
:1037E0000199402200208854FFE702A900200870B8
:1037F00003E002A902200870FFE702A8007803B0E6
:1038000010BD84B00290019102984121405C2028B3
:103810003FD1FFE7FFE702984021405C012804D137
:10382000FFE703A90220087037E002994022012037
:103830008854FFE7FFE70299412224208854029828
:1038400001680868012398430860029800680068CE
:10385000009000980F21090288430090019801020E
:10386000009808430090009802990968086002983F
:103870000168086818430860029920208854FFE70F
:103880000299402200208854FFE703A90020087015
:1038900003E003A902200870FFE703A8007804B042
:1038A0007047000080B582B000900098002804D1D5
:1038B000FFE701A90120087074E000984121405CF5
:1038C000002808D1FFE70099402200208854009882
:1038D00000F09CF9FFE700994122242088540098C9
:1038E00001680868012290430860009948680F2326
:1038F0001B06984309680861009801688868D2032C
:10390000904388600098C068012808D1FFE70099BB
:1039100088680122D20310430968886007E0009993
:10392000886821229202104309688860FFE70098A6
:10393000C068022806D1FFE7009801680120C00294
:103940004860FFE7009801684868184A10434860DB
:1039500000980168C8680122D3039843C8600099A1
:1039600008694B6918438B691B0218430968C860D2
:103970000099C8690B6A18430968086000980168D3
:10398000086810430860009900204864009A4123A9
:103990002021D1540099086300994222885401A93A
:1039A0000870FFE701A8007802B080BD0080000227
:1039B000B0B58AB0044610980F980E9D089407ACD5
:1039C000218006A90A8005A90B8004A9088008980F
:1039D0004121405C202800D00EE10E98002805D03F
:1039E000FFE704A80088002807D1FFE7089A012014
:1039F0004102516409A9087002E1FFE708984021DB
:103A0000405C012804D1FFE709A902200870F7E013
:103A10000899402201208854FFE7FFE7FFF7A0FE46
:103A200003900898039900910122D103192302F011
:103A3000B3F9002804D0FFE709A901200870DFE0EE
:103A40000899412221208854089942224020885414
:103A50000899002048640E99089A51620499089ABE
:103A6000518508994863089807A9098806AA128809
:103A700005AB1B88109C039D0195009402F006F98C
:103A800000280AD0FFE7FFE7089940220020885469
:103A9000FFE709A901200870B2E00898408D000AEC
:103AA00000280FD0FFE70899FF200885089807A98C
:103AB00009882822825C0023009301231B0602F060
:103AC00043F90FE00898408D08990885089807A9E0
:103AD00009882822825C0023009301235B0602F000
:103AE00033F9FFE7FFE708981099039A02F0E1F92C
:103AF000002804D0FFE709A90120087080E0089998
:103B0000486A0078096888620899486A401C4862D7
:103B10000899488D401E48850899088D401E0885E3
:103B20000898408D00283AD0FFE70898008D0028BB
:103B300035D1FFE70898109B03990091802100225E
:103B400002F02AF9002804D0FFE709A90120087033
:103B500056E00898408D000A00280FD0FFE708992A
:103B6000FF200885089807A909882822825C00237D
:103B7000009301231B0602F0E7F80FE00898408D40
:103B800008990885089807A909882822825C0023DB
:103B9000009301235B0602F0D7F8FFE7FFE7FFE79A
:103BA0000898408D00289ED1FFE708981099039A45
:103BB00002F039F9002804D0FFE709A901200870B4
:103BC0001EE0089801682020C86108990A685168B9
:103BD0000D4B19405160089941228854089942229E
:103BE00000208854FFE70899402200208854FFE70E
:103BF00009A90020087003E009A902200870FFE766
:103C000009A800780AB0B0BD00E800FE80B58AB00F
:103C1000099000200890079006900590049009985C
:103C200000682649884221D1FFE7FFE7254802685E
:103C300002210A4302600068084003900398FFE7EE
:103C4000C0200490122005900020069003200790C9
:103C50000120019008901D4804A9FFF7E1FB019A9B
:103C60005649086852051043086025E00998006825
:103C7000134988421FD1FFE7FFE712480268042179
:103C80000A4302600068084002900298FFE70320A0
:103C900004901221059100210691079007200890B9
:103CA000094804A9FFF7BCFB4449086801229207B0
:103CB00010430860FFE7FFE70AB080BD00540040F2
:103CC000007800402C100240000800500004005012
:103CD0002C48027802490868801808607047C0467E
:103CE000800C002080B582B001A9002008700A4A2B
:103CF000116840231943116000F010F8002804D027
:103D0000FFE701A90120087002E000F03FF8FFE79B
:103D100001A8007802B080BD0020024080B584B0C8
:103D20000290174800680190164801787D20C00075
:103D3000FCF7D8FB01460198FCF7D4FB01F0C6F86C
:103D4000002804D0FFE703A90120087014E00298BE
:103D5000032809D8FFE702990022D04300F03BF87E
:103D600002980949086003E003A90120087003E0F4
:103D700003A900200870FFE703A8007804B080BD05
:103D8000080000200C0000201000002080B582B048
:103D9000094A11680120019001431160074A116826
:103DA0000307194311600022114600F014F801982E
:103DB00000F006F802B080BD341002403810024016
:103DC00080B582B0014601A801700021405603F081
:103DD0008FF902B080BD80B584B0034603A803709C
:103DE0000291019200214056029903F097F904B024
:103DF00080BD000085B0049003A8017000200290EF
:103E0000EE48006801214A021040019020480068F5
:103E100008400090019800280BD0FFE70098002888
:103E200007D0FFE7E5490868012252029043086085
:103E3000FFE7E2490868029002980322904302904B
:103E4000049A029810430290029808601149086889
:103E500004229043086003A80078012802D1FFE7FC
:103E600030BF03E040BF20BF20BFFFE7019800281C
:103E70000BD0FFE70098002807D0FFE7CF4908687C
:103E80000122520210430860FFE700BF05B07047EF
:103E90002000014010ED00E07047000080B50748A9
:103EA0000068C003002807D5FFE7FFF7F5FF0120F2
:103EB000000402490860FFE780BDC04614040140C9
:103EC00080B586B0049001A90020087004980068AD
:103ED00020210840202806D0FFE7049840780007FA
:103EE000002800D4F1E0049800788006002801D56D
:103EF000FFE7FFE7049840780007002801D5FFE7B7
:103F0000FFE7AD480068C000002809D4FFE7AA4ACF
:103F10001168012003071943116001A90870FFE728
:103F2000A6480068C00500281DD4FFE7A34908681B
:103F30000122120210430860FFF712FC0390FFE712
:103F40009E480068C00500280CD4FFE7FFF708FC76
:103F50000399401A652804D3FFE705A903200870D8
:103F600025E1EDE7FFE79648006803210A051040C8
:103F700002900298049949681140884209D1FFE7EC
:103F8000029804998968032212051140884214D0CE
:103F9000FFE70498406803210904084088420BD1D8
:103FA000FFE7874800688003002804D5FFE705A9DC
:103FB00001200870FBE0FFE7FFE78248006803216B
:103FC0000904084002900298002851D0FFE70298A7
:103FD00004994968032212041140884207D0FFE780
:103FE000049800682021084020280FD0FFE702989D
:103FF00004998968032212041140884238D0FFE7EF
:10400000049840780007002832D5FFE76D4908681A
:10401000032212049043029008680122D204104344
:1040200008600868904308600298086002A8407819
:10403000C00700281BD0FFE7FFF792FB0390FFE7C4
:1040400060480068012149020840400A00280DD15B
:10405000FFE7FFF785FB0399401A5C49884204D3C8
:10406000FFE705A903200870A1E0E9E7FFE7FFE704
:10407000FFE7FFE7049840680321090408408842ED
:104080000BD1FFE74E490868032213059843049AB1
:1040900052681A4080180860FFE7FFE704984268FA
:1040A0000320000402404749086810430860FFE706
:1040B00001A80078012807D1FFE73F4908680122DD
:1040C000120790430860FFE7FFE704980078C007F5
:1040D000002809D0FFE73C49086803229043049A6E
:1040E000D26810430860FFE7049800788007002832
:1040F00009D5FFE7344908680C229043049A1269F5
:1041000010430860FFE704980078400700280AD5AC
:10411000FFE72D490868032292029043049A5269EE
:1041200010430860FFE704980078000700280AD5CC
:10413000FFE725490868032212039043049A926915
:1041400010430860FFE704984078C00700280AD0B1
:10415000FFE71D490868032212049043049AD269BC
:1041600010430860FFE704980078400600280AD54D
:10417000FFE715490868012292069043049A526AA3
:1041800010430860FFE704980078000600280AD56D
:10419000FFE70D490868032292049043049A126ACB
:1041A00010430860FFE705A900200870FFE705A895
:1041B000007806B080BDC046381002400070004054
:1041C00000100240501002404C10024089130000C1
:1041D00080B586B0049003910498002804D1FFE7CD
:1041E00005A90120087062E10398B349096801221A
:1041F0001140884221D9FFE7AF4908680122904366
:10420000039A10430860FFF7ABFA0290FFE7AA4851
:10421000006801210840039988420DD0FFE7FFF7AD
:104220009FFA0299401AA549884204D3FFE705A9DD
:10423000032008703BE1EAE7FFE704980078800775
:10424000002809D5FFE7B1490868F0229043049A95
:10425000926810430860FFE704980078C0070028C0
:1042600000D1BCE00498406802280ED1FFE7F34873
:104270000068012149040840400C002804D1FFE7F0
:1042800005A90120087012E134E004984068032871
:104290000ED1FFE7E9480068012149060840400EB9
:1042A000002804D1FFE705A901200870FFE020E005
:1042B0000498406801280DD1FFE7E0480068042118
:1042C00008408008002804D1FFE705A901200870F4
:1042D000EDE00DE0D9480068012149020840400A9C
:1042E000002804D1FFE705A901200870DFE0FFE7FF
:1042F000FFE7FFE7CF49086803229043049A52681A
:1043000010430860FFF72CFA0290049840680228D6
:1043100016D1FFE7FFE7C74800680C2108400828CE
:104320000DD0FFE7FFF71CFA0299401A6349884253
:1043300004D3FFE705A903200870B8E0EBE74DE0E0
:1043400004984068032816D1FFE7FFE7B9480068E2
:104350000C2108400C280DD0FFE7FFF701FA029965
:10436000401A5649884204D3FFE705A90320087084
:104370009DE0EBE731E004984068012816D1FFE7A3
:10438000FFE7AC4800680C21084004280DD0FFE787
:10439000FFF7E6F90299401A4849884204D3FFE73B
:1043A00005A90320087082E0EBE715E0FFE7A148CC
:1043B00000680007800F00280DD0FFE7FFF7D0F955
:1043C0000299401A3D49884204D3FFE705A903201A
:1043D00008706CE0EBE7FFE7FFE7FFE7FFE7039814
:1043E0003549096801221140884221D2FFE732494C
:1043F000086801229043039A10430860FFF7B0F960
:104400000290FFE72C480068012108400399884288
:104410000DD0FFE7FFF7A4F90299401A2749884217
:1044200004D3FFE705A90320087040E0EAE7FFE7AF
:1044300004980078400700280AD5FFE77D490868FE
:10444000072212029043049AD26810430860FFE7E3
:1044500004980078000700280BD5FFE77549086825
:104460000722D2029043049A1269D20010430860D6
:10447000FFE700F04FF86F490968C9B20A0910490F
:10448000895CC840124908600E480068FFF746FC86
:10449000014601A801700078002804D0FFE70198C8
:1044A00005A9087003E005A900200870FFE705A82A
:1044B000007806B080BDC04600200240891300008D
:1044C0009088000810000020014800687047C0462E
:1044D0000800002080B5FFF7F7FF5649096807225A
:1044E000120211400A0A0A49895CC84080BDC046D0
:1044F00080B5FFF7E9FF4F4909680722D202114052
:10450000CA0A0349895CC84080BDC0460C100240FD
:10451000A088000880B58AB04648006809900998CC
:104520000C21084003900C2875D80398810001A045
:1045300040588746154600081746000817460008E9
:104540001746000869450008174600081746000886
:10455000174600088345000817460008174600085C
:10456000174600088945000834480068C00600283E
:1045700003D5FFE73348049002E031480490FFE799
:1045800055E03148049052E009980F218904084011
:10459000810C2948405C089009980321890508404E
:1045A000800D401C079023480068C00300280DD5EB
:1045B000FFE70898244A002302931946FBF77AFE86
:1045C000029B079AFBF78EFE069020E01B480068CE
:1045D000C00600280DD5FFE708981A4A002301936A
:1045E0001946FBF767FE019B079AFBF77BFE0690D7
:1045F0000CE00898124A002300931946FBF75AFE74
:10460000009B079AFBF76EFE0690FFE7FFE7069810
:1046100004900CE0FFE70D48006880B2400B059065
:104620000598411C01208840C0030490FFE70498CE
:104630000AB080BD0C1002401C9600080010024019
:104640000024F40000093D0000127A00041002402A
:1046500010B58AB008900898002805D1FFE709A98D
:104660000120087000F015FCFD4801680C22114083
:10467000049100680121090408400390089800781B
:10468000C007002800D18DE0049808280AD0FFE771
:1046900004980C2819D1FFE70398012109048842E6
:1046A00013D1FFE7EF480068012149040840400C9E
:1046B000002809D0FFE708984068002804D1FFE7E8
:1046C00009A901200870E4E36BE0FFE7089840685F
:1046D00001210904884207D1FFE7E2490868012265
:1046E00012041043086021E008984068052109047D
:1046F00088420BD1FFE7DB49086801229304184385
:10470000086008681204104308600EE0D549086884
:104710000122130498430860086818400290029828
:104720000868920490430860FFE7FFE7FFE70898F6
:10473000406800281AD0FFE7FFF712F80790FFE75C
:10474000C8480068012149040840400C00280CD1E9
:10475000FFE7FFF705F80799401A652804D3FFE73C
:1047600009A90320087094E3EAE719E0FEF7F8FFCF
:104770000790FFE7BB480068012149040840400C4E
:1047800000280CD0FFE7FEF7EBFF0799401A6528D9
:1047900004D3FFE709A9032008707AE3EAE7FFE7FB
:1047A000FFE7FFE7089800788007002800D4A8E01A
:1047B0000898C068069006A800788006002809D5E9
:1047C000FFE7A84A10682021084310600698884334
:1047D0000690FFE70498042808D0FFE704980C2807
:1047E00041D1FFE7039800283DD1FFE79D480068CD
:1047F000042108408008002808D0FFE70698002818
:1048000004D1FFE709A90120087042E3964908682E
:104810001F2212029043089A126912021043086084
:104820009049086809229043069A10430860FFE700
:10483000FFF770FE8A490968C9B20A098B49895C89
:10484000C8408B4908608B480068FFF767FA01464B
:1048500005A801700078002804D0FFE7059809A991
:10486000087016E34CE0069800282AD0FFE77D493F
:10487000086809229043069A10430860FEF770FF0B
:104880000790FFE777480068042108408008002867
:104890000CD1FFE7FEF764FF0799401A032804D301
:1048A000FFE709A903200870F3E2EBE76E49086807
:1048B0001F2212029043089A1269120210430860E4
:1048C0001DE068490868012290430860FEF748FF30
:1048D0000790FFE76348006804210840800800282B
:1048E0000CD0FFE7FEF73CFF0799401A032804D3DA
:1048F000FFE709A903200870CBE2EBE7FFE7FFE73A
:10490000FFE708980078C006002800D4A1E00498CA
:10491000002845D1FFE753480068012149020840BB
:10492000400A002809D0FFE70898C069002804D190
:10493000FFE709A901200870ABE24B49086807228C
:1049400052039043089A526A104308600868FF2295
:1049500012069043089A126A120680180860089896
:10496000406A400B411C01208840C0033C49096853
:10497000C9B20A093D49895CC8403D4908603D48C3
:104980000068FFF7CBF9014605A801700078002800
:1049900004D0FFE7059809A908707AE2FFE757E01D
:1049A0000898C069002832D0FFE72E490868012224
:1049B000120210430860FEF7D3FE0790FFE7294874
:1049C0000068012149020840400A00280CD1FFE795
:1049D000FEF7C6FE0799401A032804D3FFE709A98A
:1049E0000320087055E2EAE71F49086807225203CE
:1049F0009043089A526A104308600868FF22120622
:104A00009043089A126A1206801808601FE0154940
:104A100008680122120290430860FEF7A1FE079089
:104A2000FFE710480068012149020840400A0028B9
:104A30000CD0FFE7FEF794FE0799401A032804D331
:104A4000FFE709A90320087023E2EAE7FFE7FFE791
:104A5000FFE708980078000700284FD50CE0C04613
:104A60000C10024000100240041002409088000820
:104A700008000020100000200898406900281ED07F
:104A8000FFE7FD490868012210430860FEF768FE51
:104A90000790FFE7F8480068022108404008002816
:104AA0000CD1FFE7FEF75CFE0799401A032804D3F8
:104AB000FFE709A903200870EBE1EBE71DE0F949E6
:104AC0000868012290430860FEF74AFE0790FFE75E
:104AD000F448006802210840400800280CD0FFE795
:104AE000FEF73EFE0799401A032804D3FFE709A901
:104AF00003200870CDE1EBE7FFE7FFE708980078B7
:104B00004007002800D4BBE001A900200870E64857
:104B10000068C000002809D4FFE7E34A11680120BB
:104B200003071943116001A90870FFE7DF48006817
:104B3000C00500281DD4FFE7DC49086801221202E5
:104B400010430860FEF70CFE0790FFE7D7480068A7
:104B5000C00500280CD4FFE7FEF702FE0799401AB3
:104B6000652804D3FFE709A90320087091E1EDE768
:104B7000FFE7FFE70898806801210902884207D112
:104B8000FFE7C849086801221202104308602EE0BE
:104B90000898806800280BD1FFE7C2490868012205
:104BA00013029843086008689202904308601DE071
:104BB000089880680521090288420BD1FFE7B949AE
:104BC0000868012293021843086008681202104323
:104BD00008600AE0B349086801221302984308609C
:104BE0000868920290430860FFE7FFE7FFE7FFE7EE
:104BF0000898806800281BD0FFE7FEF7B1FD0790FA
:104C0000FFE7A8480068012149020840400A00283F
:104C10000DD1FFE7FEF7A4FD0799401AA449884289
:104C200004D3FFE709A90320087032E1E9E71AE09D
:104C3000FEF796FD0790FFE79A48006801214902B8
:104C40000840400A00280DD0FFE7FEF789FD0799CC
:104C5000401A9749884204D3FFE709A90320087046
:104C600017E1E9E7FFE701A80078012807D1FFE78E
:104C70008D4908680122120790430860FFE7FFE7AB
:104C8000089800788006002854D5FFE708988069C6
:104C9000002829D0FFE7FFE7864908680122104372
:104CA0000860864908681043086083490868520311
:104CB00010430860FFE7FEF753FD0790FFE77D48CC
:104CC000006802210840400800280CD1FFE7FEF7E9
:104CD00047FD0799401A032804D3FFE709A90320D9
:104CE0000870D6E0EBE724E0FFE77249086801228C
:104CF0009043086070490868520390430860FFE7DA
:104D0000FEF72EFD0790FFE76A4800680221084081
:104D1000400800280CD0FFE7FEF722FD0799401A53
:104D2000032804D3FFE709A903200870B1E0EBE7EB
:104D3000FFE7FFE70898806A002800D1A5E0049803
:104D40000C2872D0FFE70898806A02284CD1FFE750
:104D5000534908680122120690430860FEF700FDDF
:104D60000790FFE74E480068012149060840400EC1
:104D700000280CD0FFE7FEF7F3FC0799401A032840
:104D800004D3FFE709A90320087082E0EAE743495A
:104D90000868FD2212049043089BDA6A1C6B2243C8
:104DA0005B6B1A43104308603D49086801221206F4
:104DB00010430860FEF7D4FC0790FFE7384800680E
:104DC000012149060840400E00280CD1FFE7FEF7FC
:104DD000C7FC0799401A032804D3FFE709A9032059
:104DE000087056E0EAE71FE02D4908680122120624
:104DF00090430860FEF7B4FC0790FFE7284800687E
:104E0000012149060840400E00280CD0FFE7FEF7BC
:104E1000A7FC0799401A032804D3FFE709A9032038
:104E2000087036E0EAE7FFE72EE00898806A01287C
:104E300004D1FFE709A9012008702AE0174800689B
:104E4000039003980121090408400899C96A88421F
:104E500014D1FFE703980F21890408400899096BD2
:104E600088420BD1FFE70398032189050840089980
:104E7000496B884206D001E05010024009A9012088
:104E8000087006E0FFE7FFE7FFE709A900200870C8
:104E9000FFE709A800780AB010BDC0460C10024018
:104EA00000100240501002403810024000700040D4
:104EB0008913000008100240200001403410024015
:104EC00009490868022210430860704780B582B023
:104ED0000190019801F05EFA02B080BD02490868B5
:104EE000022290430860704710E000E085B0039014
:104EF0000291FFE703983821405C012804D1FFE7C5
:104F000004A90220087053E0039938220120885434
:104F1000FFE7FFE7039939220220885403980068CD
:104F200040680190039800688068009001987021A3
:104F30008843019002980168019808430190019804
:104F4000039909684860039800680121890788422D
:104F500012D0FFE7039800686E4988420CD0FFE743
:104F6000039800686C49884206D0FFE70398006800
:104F70006A4988420ED1FFE700988021884300905B
:104F800002984168009808430090009803990968C6
:104F90008860FFE70399392201208854FFE70399CD
:104FA000382200208854FFE704A900200870FFE79A
:104FB00004A8007805B0704780B582B000900098D2
:104FC000002804D1FFE701A90120087030E0009813
:104FD0003921405C002808D1FFE7009938220020E1
:104FE0008854009800F028F8FFE700993922022041
:104FF0008854009901C901F059FA00993E22012014
:105000008854FFE700993A220120885400993B22F6
:10501000885400993C22885400993D228854FFE727
:10502000009939220120885401A900200870FFE767
:1050300001A8007802B080BD80B582B001900198CF
:1050400000680A4988420FD1FFE709490868102221
:10505000104308601120009000221146FEF7BBFEAD
:105060000098FEF7ADFEFFE702B080BD00100040E3
:105070003810024083B0019001983921405C01282A
:1050800004D0FFE702A9012008703EE0019939220F
:105090000220885401980268D06801210843D0603A
:1050A000019800688907884212D0FFE701980068DC
:1050B000184988420CD0FFE70198006816498842D9
:1050C00006D0FFE7019800681449884212D1FFE733
:1050D0000198006880680721084000900098062821
:1050E00007D0FFE7019801680868012210430860B3
:1050F000FFE706E001980168086801221043086094
:10510000FFE702A900200870FFE702A8007803B0BB
:105110007047C046000400400008014000140140F0
:1051200081B0009001B0704780B582B001900198C5
:1051300000680069022108404008002828D0FFE7E5
:1051400001980068C06802210840400800281ED06D
:10515000FFE7019801680220C0430861019901201E
:1051600008760198006880698007002804D0FFE76E
:105170000198FFF7D5FF06E0019800F0D4F80198F8
:1051800000F0D5F8FFE7019900200876FFE7FFE778
:10519000019800680069042108408008002829D08F
:1051A000FFE701980068C0680421084080080028D3
:1051B0001FD0FFE7019801680420C04308610199EE
:1051C000022008760198006880698005800F002819
:1051D00004D0FFE70198FFF7A3FF06E0019800F075
:1051E000A2F8019800F0A3F8FFE7019900200876E3
:1051F000FFE7FFE701980068006908210840C00840
:10520000002828D0FFE701980068C06808210840FE
:10521000C00800281ED0FFE7019801680820C0439D
:10522000086101990420087601980068C069800728
:10523000002804D0FFE70198FFF772FF06E001980D
:1052400000F071F8019800F072F8FFE70199002072
:105250000876FFE7FFE70198006800691021084021
:105260000009002829D0FFE701980068C0681021D4
:105270000840000900281FD0FFE7019801681020AE
:10528000C043086101990820087601980068C06948
:105290008005800F002804D0FFE70198FFF740FF4A
:1052A00006E0019800F03FF8019800F040F8FFE7B1
:1052B000019900200876FFE7FFE701980068006980
:1052C000C007002811D0FFE701980068C068C00738
:1052D000002809D0FFE7019801680120C043086158
:1052E000019800F029F8FFE7FFE7019800680069DE
:1052F000402108408009002813D0FFE7019800688A
:10530000C068402108408009002809D0FFE70198C3
:1053100001684020C0430861019800F029F8FFE7C8
:10532000FFE702B080BD81B0009001B0704781B04E
:10533000009001B07047000080B582B0019009482C
:1053400000221146FDF736F901980749884207D136
:10535000FFE7FFF7B5FD054802F0C5FE00BFFFE718
:1053600002B080BD03000100B0060020280C002020
:1053700081B0009001B0704782B001906846018012
:1053800002B0704781B0009001B0704781B00090CA
:1053900001B0704781B0009000988021405801B062
:1053A0007047000080B5A8B00F900F980068C069E2
:1053B0000E900F98006800680D900F980068806844
:1053C0000C900E98ED4908400B900B98002817D1CF
:1053D000FFE70EA800788006002810D5FFE70DA88B
:1053E0000078800600280AD5FFE70F98406E002855
:1053F00004D0FFE70F98416E8847FFE751E2FFE7CF
:105400000B98002800D1FBE00CA80078C00700280A
:1054100005D1FFE70D98DA49084200D1F0E00EA867
:105420000078C007002810D0FFE70DA84078C0071B
:1054300000280AD0FFE70F980068012303620F9944
:105440008022885818438850FFE70EA8007880070C
:10545000002811D5FFE70CA80078C00700280BD062
:10546000FFE70F980168022008620F998022885890
:10547000042318438850FFE70EA80078400700284F
:1054800011D5FFE70CA80078C00700280BD0FFE774
:105490000F980168042008620F998022885802231F
:1054A00018438850FFE70EA800780007002816D59B
:1054B000FFE70DA800788006002806D4FFE70CA8B7
:1054C0000078C00700280AD0FFE70F98006808237B
:1054D00003620F998022885818438850FFE70EA86E
:1054E00040780007002812D5FFE70DA8C0784007D4
:1054F00000280CD5FFE70F9801680120C002086260
:105500000F9980228858202318438850FFE70F986E
:1055100080214058002872D0FFE70EA8007880064E
:10552000002810D5FFE70DA80078800600280AD5CE
:10553000FFE70F98406E002804D0FFE70F98416EF8
:105540008847FFE7FFE70F98802140580A900F989F
:105550000068806840210840402806D0FFE70AA87C
:1055600000782821084241D0FFE70F9801F012F996
:105570000F98006880684006002832D5FFE7FFE7F3
:10558000EFF3108017901798099001202790279823
:1055900080F310880F9801688868402290438860E3
:1055A00009982690269880F31088FFE70F98006FDF
:1055B000002811D0FFE70F98016FBB4888630F9850
:1055C000006FFDF72EFD002805D0FFE70F98006F54
:1055D000816B8847FFE703E00F98FFF7D7FEFFE7EF
:1055E00003E00F98FFF7D2FEFFE707E00F98FFF701
:1055F000CDFE0F99802200208850FFE7FFE750E1A1
:105600000F98006E012800D010E10EA80078C006A7
:10561000002800D40AE10DA80078C006002800D4B4
:1056200004E10F980168102008620F9800688068F4
:105630004006002800D48EE00F98006F0068416893
:1056400008A801800088002800D183E008A800880D
:105650000F995822895A884200DB7BE008980F99FD
:105660005A2288520F98006F006800688006002850
:1056700066D4FFE7FFE7EFF31080169016980790C7
:1056800001222592259880F310880F9801680868F8
:1056900012029043086007982490249880F31088A1
:1056A000FFE7FFE7EFF310801590159806900122B1
:1056B0002392239880F310880F980168886890439C
:1056C000886006982290229880F31088FFE7FFE711
:1056D000EFF31080149014980590012021902198E8
:1056E00080F310880F980168886840229043886092
:1056F00005982090209880F31088FFE70F992020CC
:10570000C8670F9900200866FFE7EFF31080139039
:105710001398049001201F901F9880F310880F9811
:105720000168086810229043086004981E901E9833
:1057300080F31088FFE70F98006FFDF735FCFFE757
:105740000F985821415A5A22825A891A89B2FFF772
:1057500013FEFFE7A5E00F9A5820105A5A21525A1B
:10576000801A03AA10800F98405A00285DD0FFE7E6
:1057700003A80088002858D004E0C0460F080000A5
:1057800020010004FFE7EFF31080129012980290BE
:1057900001201D901D9880F310880F9801680868FB
:1057A000092252019043086002981C901C9880F3D3
:1057B0001088FFE7FFE7EFF3108011901198019038
:1057C00001221B921B9880F310880F98016888684B
:1057D0009043886001981A901A9880F31088FFE728
:1057E0000F992020C8670F99002008660F99486616
:1057F000FFE7EFF3108010901098009001201990AF
:10580000199880F310880F98016808681022904357
:10581000086000981890189880F31088FFE70F9898
:1058200003A90988FFF7A8FDFFE73AE00EA88078F2
:10583000C00600280FD5FFE70CA880784006002896
:1058400009D5FFE70F9801680120000508620F984D
:10585000FFF798FD25E00EA800780006002810D577
:10586000FFE70DA80078000600280AD5FFE70F988B
:10587000806E002804D0FFE70F98816E8847FFE70D
:105880000FE00EA80078400600280AD5FFE70DA813
:1058900000784006002804D5FFE70F9800F0D1FFFC
:1058A000FFE728B080BDC0467167000880B582B0B0
:1058B00000900098002804D1FFE701A9012008709A
:1058C00048E000988069002801D0FFE700E0FFE78A
:1058D0000098806F002808D1FFE70099742200200B
:1058E0008854009800F03AF8FFE700992420886770
:1058F000009801680868012290430860009800F051
:10590000C5FF012804D1FFE701A90120087021E0AB
:105910000098406A002804D0FFE7009800F028FEB5
:10592000FFE70098016848680922D2029043486066
:105930000098016888682A2290438860009801686E
:105940000868012210430860009800F0BFFE01A91A
:105950000870FFE701A8007802B080BD80B58AB06A
:1059600009900020089007900690059004900998EF
:105970000068184988422BD1FFE7174908680122BF
:10598000520410430860FFE71448026801210A43EB
:1059900002600068084003900398FFE70C20049021
:1059A000022005900020019006900320079004201B
:1059B00008900520000704A9FDF732FD019A1C207C
:1059C00002901146FEF707FA0298FEF7F9F9FFE791
:1059D0000AB080BD00440040381002402C10024044
:1059E00088B00390029101A802800398806F20285C
:1059F00000D07DE00298002805D0FFE701A80088CC
:105A0000002804D1FFE704A90120087074E003987E
:105A1000806801210903884210D1FFE703980069DB
:105A200000280BD1FFE702A80078C007002804D0A7
:105A3000FFE704A9012008705EE0FFE7FFE7039895
:105A40007421405C012804D1FFE704A902200870FA
:105A500052E00399742201208854FFE7FFE702987F
:105A60000399C864019803995022885201980399B8
:105A70005222885203990020886603998022885018
:105A800003992120886703988068012109038842CF
:105A900009D1FFE703980069002804D1FFE70399C3
:105AA0001848886603E0039915488866FFE7FFE712
:105AB0000399742200208854FFE7FFE7EFF310807A
:105AC00005900598009001200790079880F31088B2
:105AD00003980168086880221043086000980690C7
